:020000040800F2
:10000000B007002035020008B72D0008B32D000806
:10001000B52D00086B1B0008B5300008000000007B
:10002000000000000000000000000000BB2D0008E0
:100030006D1B000800000000B92D0008BD2D000850
:100040004F0200084F0200084F0200084F0200084C
:100050006F1B00084F0200084F0200084F02000803
:100060004F0200084F0200084F0200084F0200082C
:100070004F0200084F0200084F0200084F0200081C
:100080004F0200084F0200084F0200084F0200080C
:100090004F0200084F0200084F0200084F020008FC
:1000A0004F0200084F0200084F0200084F020008EC
:1000B0004F0200084F0200084F0200084F020008DC
:1000C0004F0200084F0200084F0200084F020008CC
:1000D0004F0200084F020008A93000084F02000834
:1000E0004F0200084F0200084F02000800F002F81B
:1000F00000F090F80AA090E8000C82448344AAF132
:100100000107DA4501D100F085F8AFF2090EBAE82F
:100110000F0013F0010F18BFFB1A43F0010318473B
:100120006436000084360000103A24BF78C878C1D5
:10013000FAD8520724BF30C830C144BF04680C60ED
:10014000704700000023002400250026103A28BF35
:1001500078C1FBD8520728BF30C148BF0B60704739
:100160006E2900F07581702900F0B782662903F0CE
:100170007182652903F06E82672903F06B82612921
:1001800003F06A8203681B0A28BF41F080016929D5
:1001900000F02281642900F01F81752900F01C8184
:1001A0006F2900F04482782900F08382E92900F069
:1001B000DF81E42900F0DC81F52900F0D981EF2905
:1001C00000F04182F82900F082820368DB0928BF31
:1001D00041F08001632900F08587732900F08A8748
:1001E000E32900F09587F32900F09A8700207047F3
:1001F0001FB500F0E7FF04000020002103F014FA0F
:10020000401C60600020002103F0F8F9E0601FBD91
:1002100010B510BD00F0A8FF1146FFF7E9FF02F08E
:10022000F7FF01F085F803B4FFF7F2FF03BC01F01C
:10023000CDF800000948804709480047FEE7FEE77F
:10024000FEE7FEE7FEE7FEE7FEE7FEE7FEE7FEE786
:1002500004480549054A064B704700001F2E000858
:10026000ED000008B0010020B0070020B00300201E
:10027000B0030020B2F120030AD5C2F1200320FA16
:1002800002F001FA03F321FA02F140EA0300704799
:1002900021FA03F04FF00001704700001CB50C4636
:1002A000064B7B4469460090204600F0EAF804467D
:1002B0000020694600F0F8F820461CBD030200004B
:1002C0004FF0000200B5134694469646203922BFEF
:1002D000A0E80C50A0E80C50B1F12001BFF4F7AF3A
:1002E000090728BFA0E80C5048BF0CC05DF804EB1C
:1002F000890028BF40F8042B08BF704748BF20F88A
:10030000022B11F0804F18BF00F8012B7047704787
:100310007047704770B5044685690068C10601D50D
:10032000302600E02026C00707D070BDD4E90121A7
:1003300030469047206A401C20626D1EF6D570BD85
:1003400070B5044685690078C00707D170BDD4E94F
:10035000012120209047206A401C20626D1EF6D5A6
:1003600070BD09684A0501D540B27047C905FCD582
:1003700000B2704709684A0501D5C0B27047C90587
:10038000FCD580B2704770B50C460546012A05D0F1
:100390002878800600D5EA69002302E0012305E001
:1003A0005B1C934202D2E05C0028F9D1A869E618F0
:1003B000C01AA861286A184428622846FFF7AAFFD5
:1003C00004E0D5E9012114F8010B9047B442F8D3B9
:1003D0002846FFF7B5FF70BD2DE9F0410646002421
:1003E00010687529314616A510D0FFF7BAFF00280E
:1003F00002DA404213A507E031688A0701D512A549
:1004000002E0490704D511A5012401E0FFF7B2FF7E
:1004100000210A2206F1240709E0B0FBF2FCB0FB40
:10042000F2F302FB1C00303078541846491C0028B7
:10043000F3D123462A463046BDE8F04100F061BAC8
:10044000000000002D0000002B0000002000000034
:1004500011680268006A530501D508700AE0D305E7
:1004600001D5088006E0130603D5C217C1E90002D2
:1004700000E008600120704701694A1C02610878A9
:10048000704700B58FB0CDE90131002105910549D4
:100490007944CDE903101146684600F029F90FB000
:1004A00000BD0000E5FFFFFF0A6802F8010B0A60CB
:1004B000704700002DE9FF5F15468A460446DFF8C5
:1004C000AC80F8440027D8E900103E46CDE9001082
:1004D00010E03AF816106A4602A800F025FE411C0A
:1004E00007D02178890603D5E269391891420DD8E1
:1004F0000744761C2078800602D5E069B84205DD05
:10050000AE42E6DB3AF816000028E2D1A069C01B33
:10051000A0612046FFF7FEFED8E90010CDE90010EB
:10052000002017E03AF818106A4602A800F0FCFD17
:10053000B0F1FF3F81460BD000250DF1080B05E01F
:10054000D4E901211BF8050090476D1C4D45F7D3F8
:1005500008F10100B0428046E4DB206A38442062A2
:100560002046FFF7EDFEBDE8FF9F0000C23100000E
:100570002DE9F0418046D21D22F007020025D2E984
:100580000002F52915A614D0011E72F1000106DA49
:100590000023D0EB030063EB020211A608E0D8F8B9
:1005A00000108B0701D50FA602E0490701D50EA662
:1005B00001251146002408F1240704E000F05CF94D
:1005C00030323A55641C50EA0102F7D12B463246CC
:1005D00021464046BDE8F04100F093B9000000001C
:1005E0002D0000002B0000002000000030B400218E
:1005F00000F1240408E002F00705D208303542EA91
:100600004372DB086554491C52EA0305F3D10468C0
:10061000002310A2250707D5A40600D421B1C46980
:1006200001230DA2641EC46130BC00F06AB910B58C
:10063000044621461068FFF79DFE02462046BDE8AD
:1006400010400023D2E7D21D22F00701D1E9002398
:10065000CCE700000000000030000000F0B40D46C0
:100660000188090502D5214C7C4402E01F4C7C44E2
:100670000E34002100F1240608E002F00F071209F1
:10068000E75D42EA03721B097754491C52EA0307EB
:10069000F3D102780023120704D5702D06D009B1DA
:1006A000022311342246F0BC00F02BB90123103490
:1006B000F8E770B504460D4621461068FFF75AFE6C
:1006C000024629462046BDE870400023C6E7D21DF9
:1006D00022F00703D3E90023C0E70368126843F060
:1006E000200303600823C3610023B7E72430000020
:1006F0002DE9F05F894604464FF0000ADFF874B137
:10070000FB44C0F820A02046E1688847002874D048
:10071000252806D0D4E901219047206A401C206298
:10072000F1E700265F462046E16888472028054615
:1007300007DB312D05D2781910F8200C08B10643DB
:10074000F1E7B00701D526F00406C4F81CA0002785
:10075000C4F818A02A2D09D0284602F0D0FC38B3DE
:1007600004EB8708303DC8F8185019E059F8041B0D
:10077000204604EB87029161E1688847012F054616
:1007800018D1E069002820DA26F020061DE0D8F80C
:10079000180000EB800005EB40003038C8F8180066
:1007A0002046E1688847054602F0A9FC0028EED102
:1007B000012F0AD02E2D08D12046E16888477F1CE2
:1007C0000546022F46F02006C4DBA069002803DAA4
:1007D000404246F00106A061F00701D026F0100665
:1007E0006C2D0BD0682D09D04C2D39D06A2D35D009
:1007F000742D35D07A2D33D016E038E0E1682F46DD
:1008000020468847B842054609D16C2F26D04FF4C0
:100810008060E168064320468847054604E06C2F67
:100820001AD04FF4807006430DB3A5F1410019288A
:1008300002D8203546F400664A46294620462660FE
:100840004E46FFF78DFC80B101280BD0F61D26F037
:10085000070000F1080956E74020E4E78020D8E7C8
:100860000020D6E706F104094DE7284652E7206A42
:10087000BDE8F09FB42F000030B5B0F10A024FEA96
:10088000900E71F100034EEA817EB0EB0E0061EB39
:1008900091014FEA101E4EEA017E10EB0E0041EB73
:1008A00011114FEA102E4EEA016E10EB0E0041EBD3
:1008B00011214FEA104E4EEA014E10EB0E0041EBB3
:1008C0001141401841F100014FEAD00040EA417067
:1008D0004FEAD10110EB80054FEA810444EA90749D
:1008E00044EB01046D1944EB0404521BA3414FF087
:1008F000000348BF0A3200D530BD401C41F1000161
:1009000030BD2DE9F0470D4699469246044600F168
:1009100024080168880604D5E06921F010012160EF
:1009200000E00120A84201DD471B00E00027A1698B
:100930007A1902EB0900081AA0612078C00602D4D7
:100940002046FFF7E7FC002608E0D4E901211AF869
:1009500006009047206A401C761C20624E45F4DB5E
:100960002078C0060AD52046FFF7D4FC06E0D4E97B
:10097000012130209047206A401C2062381EA7F1D8
:100980000107F4DC07E0D4E9012118F805009047DD
:10099000206A401C2062281EA5F10105F3DC2046D8
:1009A000FFF7CEFC2078000602D50220BDE8F087D4
:1009B0000120FBE770472DE9FF4F0C461E464FF024
:1009C000FF378BB0D2E90001DDF860800A908A46DB
:1009D000C1F30A5505B93D46002108464FF0000015
:1009E000BAF1000F00F4400005DA00EB80004FF48C
:1009F000400101EA50004FEA9059B9F1010F00DDC2
:100A0000B9460A9850EA4A000ED044F61050A5F2B2
:100A1000FF3545432F14B8F1000F1ED07542291E33
:100A20001EDDC9F100021CE0B8F1010F4FF000001B
:100A300001D0302103E0F24305E02154401CB042D4
:100A4000FBDB30460022002121540B99C1F80880BD
:100A5000C1E900200FB0BDE8F08FBD1B6D1CDEE7C3
:100A60004A4600DA694206A800F0F0FB06AB93E8BC
:100A7000070003AB83E8070050460A9900F0ADFC7D
:100A80008DE80700A0F500501F3800900398002D56
:100A90000ADD42F21F014A460844002303A90390DD
:100AA000684600F016FF09E0A0F500504A461F38DE
:100AB000002303A90390684600F020FF8DE807009B
:100AC0000004000C03D04FF0FF30410800E0104656
:100AD000B8F1000F03D00022009215461EE0751EEB
:100AE00005D4FFF7C9FE303262556D1EF9D5B34605
:100AF0000122084302D000227F1C04E02078302825
:100B000001D100227F1E002A099784D01DE0112DFB
:100B100007DAFFF7B1FE303262556D1C50EA010270
:100B2000F5D1084302D00098C8B10EE00021681E3C
:100B300005E0235C625C63542254401E491C8142E0
:100B4000F7DBAB46A81B401E0990002004F80B0001
:100B50000B98099AC0F80880C0E9002B7AE71126A3
:100B60004FF0000857E72DE9F04F88460446D21DA4
:100B700022F0070191B0D1E90001CDE90A0102F0AC
:100B80009AFA02460B98C00F01D02D2007E020688A
:100B9000810701D52B2002E0202101EAC000032AB1
:100BA000099001D0072A05DB03464146204600F0A4
:100BB0000DFB0BE12078800601D5E06900E00620FE
:100BC000B8F1650F814606D0B8F1660F18D0B8F1BC
:100BD000670F70D131E00020B9F1110F009001DBF7
:100BE000112301E009F101030AAA01A90CA8FFF7EA
:100BF000E2FEDDE90C70002609F10105834647E0BD
:100C000001204B4600904FF000470AAA01A90CA80A
:100C1000FFF7D1FEDDE90DB00C995D46002610B955
:100C200009F101000D18B9EB050003D4C0F1FF363E
:100C300009F10105A5EB09002BE0B9F1010F01DA7B
:100C40004FF001090020B9F1110F0090484601DD75
:100C5000112300E003460AAA01A90CA8FFF7ABFE86
:100C6000DDE90C704D4600268346207800070AD443
:100C7000AB4500DA5D4601A8012D04DD411911F8EC
:100C8000011C302907D04F4502DA17F1040F04DAAE
:100C9000012082460FE06D1EEEE7002F02DCED1B07
:100CA0003E4403E0781CA84200DD7D1CB81B00F127
:100CB000010A4FF000472078000703D4AA4501DB62
:100CC0004FF0FF3A0021B7F1004F0DF143088DF8C6
:100CD000431024D002202B23002F01DA7F422D2342
:100CE0000A21021EA0F1010000DC5FB197FBF1FCBC
:100CF00097FBF1F201FB1C7C17460CF1300C08F855
:100D000001CDEEE7A8F1010003702188090501D5A6
:100D1000452100E06521A0F1010800F8011C0998B7
:100D20000FA9A1EB0807FF1D00B10120411901EB3C
:100D3000EA70A1693844081A401EA0612078C006F4
:100D400002D42046FFF7E6FA099828B1D4E9012138
:100D50009047206A401C20622078C00622D5204699
:100D6000FFF7D8FA1EE0002E04DBB34502DD01A830
:100D7000805D00E03020D4E901219047206A401CCA
:100D80002062761CAAF101005FEA000A0AD100F095
:100D900019FAC0680168405CD4E901219047206AD3
:100DA000401C2062281EA5F10105DCDC07E0D4E927
:100DB000012118F8010B9047206A401C2062381E60
:100DC000A7F10107F3DC2046FFF7BAFA032011B0C0
:100DD00041E600002DE9F04F04460D46D21D22F0F9
:100DE000070089B0D0E900974846394602F063F918
:100DF0000246F80F01D02D2307E02068810701D5B6
:100E00002B2302E0202101EAC0038DF820300BB132
:100E1000012000E00020032A824601D0072A04DBDB
:100E20002946204600F0D2F93FE12078800601D41F
:100E30000D2500E0E569C7F30A560D2D49DA0021BA
:100E40004FEA175B08464FF00000002F00F4400007
:100E500007DA00EB80004FF4400100EBD07001EAAC
:100E600060008115012901DD4FF0FF3100224FEABA
:100E7000850CBCF1180F06D31346ACF118004FF0E7
:100E80008052C24003E04FF4801323FA0CF30CF1BC
:100E90000C0CBCF1200F04D3ACF1200C09FA0CF0BF
:100EA00001E007FA0CF000294FF0004801DD18B905
:100EB0000FE00ED140450CD319EB02095F4121B977
:100EC000404502D19F4329EA0209BBEB175F00D0DE
:100ED000761C2088000502D57B48784402E07A48D9
:100EE0007844193808AA302302F80A30037C0AF142
:100EF0000101002E0AF1020A53546A4602DC4FF047
:100F0000300101E04FF031014FF001088DF8001081
:100F100002D0A6F2FF3603E059EA470100D06B4E3B
:100F2000002D02DC2178090704D54FF002082E219C
:100F30008DF80110C44600210BE0C7F303433F01C5
:100F4000C35C491C6D1E02F80830052908F1010830
:100F500001DA002DF1DC00210CE000EB1973491CD3
:100F60001B786D1E082902F808304FEA091908F1AC
:100F7000010801DA002DF0DC21688B0602D516E0AD
:100F8000A8F10108E04505DD02EB080313F8013C78
:100F9000302BF5D0B8F1000F09DD02EB080313F890
:100FA000013C2E2B03D1090701D4A8F10108002D23
:100FB00005DD3E2102F808106D1E08F10108407C95
:100FC000002E02F8080008F1010804DA2D2076420C
:100FD00002F8080002E02B2002F808000A214FF472
:100FE0007A70864208F101080BDB96FBF0F3303390
:100FF00002F8083096FBF0F308F1010800FB1366D5
:1010000001E0642E0CDB642096FBF0F3303302F831
:10101000083096FBF0F308F1010800FB136601E0CD
:101020000A2E06DB96FBF1F0303002F8080008F1DA
:10103000010896FBF1F001FB1060303002F8080067
:10104000A16908F1010808EB050202EB0A00081A81
:10105000A0612078C00602D42046FFF75BF9216A20
:1010600008AE01EB0A00206204E0D4E9012116F881
:10107000010B9047BAF1010AF7D22078C00602D5D9
:101080002046FFF747F96E4609E016F8010B3E28A7
:101090000FD0D4E901219047206A401C2062B8F1AA
:1010A0000108F2D22046FFF74BF909B00320BDE852
:1010B000F08F206A2844206203E0D4E90121302027
:1010C00090476D1EEBD3F8E7FE27000002FCFFFF00
:1010D00010B5436913B1AFF3008001E0FFF753F996
:1010E000012010BD127800F124010A7000224A701C
:1010F0000122EDE711684FF0FF32E9E710B54369CF
:1011000013B1AFF3008001E0FFF7D4F9012010BD67
:10111000128800F1240182840022C2840122EDE7BA
:1011200011684FF0FF32E9E770B516460C460546E8
:1011300000F040F8036893F80101012806D0FF2C65
:101140000FD8185D68B101202C7070BDD3F807016D
:101150003246214603F2071303442846BDE8704097
:1011600018474FF0FF3070BD754600F0EBF8AE4603
:1011700005006946534620F00700854618B020B5A3
:10118000FFF766F8BDE820404FF000064FF000077B
:101190004FF000084FF0000B21F00701AC46ACE81F
:1011A000C009ACE8C009ACE8C009ACE8C0098D468C
:1011B0007047000010B500F005F8001D10BD00BF1D
:1011C0006924000000487047700100202DE9F041BB
:1011D0001F46044603260168072A01F4006004DB69
:1011E00008B116A505E016A503E008B115A500E0B5
:1011F00015A521F010002060A069C01EA0610FB1EC
:10120000401EA0612046FFF785F84FB1D4E90121C7
:1012100038469047206A401C2062C01C206206E0CD
:10122000206AFAE7D4E9012115F8010B9047761EF0
:10123000F8D22046FFF784F8BDE8F0814E414E0019
:101240006E616E00494E4600696E66002DE9F047FA
:10125000814616468AB0354878440DC88DE80D00A1
:1012600032487844801C03AC0DC884E80D0041F678
:101270009B300844372190FBF1F290FBF1F5A5F18A
:10128000800501FB12041B3C02D56442012000E0F2
:101290000020DFF898A080460027FA44AAF1BE0A91
:1012A0000EE0E0070AD03246684607EB470101230B
:1012B0000AEB810100F022FB8DE8070064107F1C1F
:1012C000002CEED1194F7F44AE3F19E0E80715D04E
:1012D00007EB04100DF1180A90E80E008AE80E00E2
:1012E000C068F04201D1981908903246012306A93E
:1012F00003A800F003FB03AB83E807006D10641C38
:10130000002DE3D14FF0010332466946B8F1000FDA
:1013100003A802D000F0DDFA01E000F0EFFAC9E91D
:101320000001C9F808200AB0BDE8F08710250000C8
:1013300010B50446AFF300802046BDE81040FEF72C
:1013400072BF000000487047500100204FF0013C80
:1013500050F8042B51F8043B9A4221D1A2EB0C0324
:10136000934313EACC1317D150F8042B51F8043BE4
:101370009A4215D1A2EB0C03934313EACC130BD181
:1013800050F8042B51F8043B9A4209D1A2EB0C030C
:10139000934313EACC13DBD04FF00000704700BF3B
:1013A000D01A01BAB1FA81F101F0180122FA01F064
:1013B000CB40C1F12001DBB2C0B2C01A2CFA01F35C
:1013C000D11A914311EAC311E6D17047014918209F
:1013D000ABBEFEE72600020070475FEA400C08BF84
:1013E00091F0000F4FEA8C234FEAC12243EA51519A
:1013F0004FEA1C5018BF00F5F0404FEA300018BF0C
:1014000041F000415FEA6C5C00F02980BCF1FF3FD5
:1014100008BF40F080407047130C06BF12044FF025
:10142000100C4FF0000C130E04BF12020CF1080C4C
:10143000130F04BF12010CF1040C930F04BF9200B0
:101440000CF1020CD30F04BF52000CF1010C114639
:101450004FF00002A0F11F00A0EB0C00704711F04C
:10146000004F08BF704731F000413FF4D5AF0B0C7F
:1014700006BF09044FF0100C4FF0000C0B0E04BF18
:1014800009020CF1080C0B0F04BF09010CF1040C4C
:101490008B0F04BF89000CF1020CCB0F04BF490075
:1014A0000CF1010CCCF12003A0EB0C0022FA03F3A9
:1014B00002FA0CF241EA030100F10100704720F04A
:1014C0007F4C80EA030023F07F47ACEB070303F572
:1014D0007C5300F0004003F1FF032DE980494FEAFF
:1014E000154B09B44FEA144325EA0B4E24EA03488E
:1014F0000FF2042606EB132749083E785FEA320212
:1015000003FB0667C7F5000707FB06F64FEA5437EB
:101510004FEAD64606F1020607FB066CCCF1005CEA
:101520004FEA1C472CEA074C07FB06F40CFB06F5B8
:1015300004EB15464FEA961634BF00204FF00040EA
:101540004FEAD13706FB07FC4FEA1C4C0CFB0BF7AC
:10155000D21B03FB0CF761EB07010CFB0EF7B0EBA2
:10156000074072EB17420CFB08F734BFA2EB0742AF
:10157000B2EB074261EB17414FEA0C444FEA910787
:1015800006FB07FC4FEA1C4C0CFB0BF7B0EBC7400B
:1015900072EB573203FB0CF734BFA2EBC742B2EB3E
:1015A000C74261EB57310CFB0EF7B0EBC70072EB93
:1015B00057720CFB08F734BFA2EBC702B2EBC702AD
:1015C00061EB5771039F4FEA816141EA921104EB8D
:1015D000CC044FEAD1374FEA826206FB07FC42EAAD
:1015E00090124FEA80604FEA1C4C0CFB0BF7D21BA9
:1015F00003FB0CF761EB07010CFB0EF7B0EB0740A8
:1016000072EB17420CFB08F734BFA2EB0742B2EBB8
:10161000074261EB17414FEA8C554FEA910704EB03
:101620009C2406FB07FC4FEA1C4C0CFB0BF7B0EBB1
:10163000C74072EB573203FB0CF734BFA2EBC74233
:10164000B2EBC74261EB57310CFB0EF7B0EBC700B2
:1016500072EB57720CFB08F734BFA2EBC702B2EB78
:10166000C70261EB577115EB4C254FEA816141EAE6
:1016700092114FEA82624FEAD13742EA901206FB9A
:1016800007FC44F100044FEA80604FEA1C4C0CFB5D
:101690000BF7D21B03FB0CF761EB07010CFB0EF7FA
:1016A000B0EB074072EB17420CFB08F734BFA2EB1C
:1016B0000742B2EB074261EB174115EB1C154FEAED
:1016C000813141EA92414FEA823242EA90424FEA46
:1016D00080304FEA0C7644F1000448EA03434EEAB6
:1016E0000B484FF0000EB2EB080C71EB030724BF60
:1016F000624639464EEB0E0E4FF0000B0018524179
:1017000049414BEB0B0BB2EB080C71EB03077BF180
:10171000000B24BF624639464EEB0E0E4FF0000B15
:101720000018524149414BEB0B0BB2EB080C71EB2B
:1017300003077BF1000B24BF624639464EEB0E0EC9
:1017400051EA020718BF46F0010616EB0E7655F176
:10175000000254F1000103D5BDE88901BDE800880D
:10176000BDE88901BDE80048B619524141EB0101CD
:10177000A3F10103704780807F7E7D7C7B7A79783E
:10178000777676757473727171706F6E6E6D6C6C46
:101790006B6A6A69686867666665646463636261E8
:1017A0006160605F5F5E5E5D5D5C5C5B5B5A5A5969
:1017B00059585857575656555555545453535252D5
:1017C0005251515050504F4F4F4E4E4D4D4D4C4C2D
:1017D0004C4B4B4B4A4A4A49494948484847474776
:1017E00047464646454545444444444343434342B3
:1017F000424242414141002B9C4630D477002BD0DD
:101800001CB54FEA370703B44FF010004FF010013A
:10181000BAF1000F06D0BCF1000FDCBF40F00800A9
:1018200040F008014FF000000FBCBDE810400BF184
:10183000010BBBF1010F08BF5FEA170722BF12F1CE
:10184000010211F101014FF0004143F1000300F0EA
:10185000004043EA00007047F9D35708D0E746EA52
:10186000064613F1400F4FEA16461FDD13F1200F15
:10187000DFBF16430A46002120335B42BED0C3F1CE
:10188000200746EA064602FA07F74FEA164646EAF6
:101890000706C3F1200722FA03F201FA07F721FA3B
:1018A00003F14FF0000342EA0702A7E746EA020607
:1018B00046EA06464FEA164646EA0106BCBF46EA35
:1018C0000646360C4FF000034FF000024FF00001C7
:1018D00094E72DE9804C9A46934670B491E838001D
:1018E00007C831EA400C48BF34EA430C03D5FFF780
:1018F000E6FDFFF780FFF0BCBDE8008C2DE9804CD1
:101900009A46934670B491E8380007C810F0804FAB
:1019100008BF13F0804F03D100F005F8FFF76BFF0D
:10192000F0BCBDE8008C20F07F4780EA030023F084
:101930007F4C07EB0C03A3F57C5300F00040A3F1B0
:10194000FE0392F0000F00F0B38095F0000F00F05E
:1019500077802DE901494FEA11404FEA144621EA08
:10196000004800FB06FC24EA064708FB06F607FBD6
:1019700008F800FB07F718EB06484CEB164C4FEA4B
:10198000124B18EB07484FEA15464CEB174022EA7A
:101990000B4E0BFB06FC25EA06470EFB06F607FB83
:1019A0000EFE0BFB07F71EEB064E4CEB164C4FF0F2
:1019B00000061EEB074E4CEB174B18EB0B0840F1E3
:1019C000000018EB0E0B58EB000840F100008F1AD6
:1019D0004FF000013CBFC943661B14BFB5EB040CBC
:1019E00000213CBFC943F61B4FEA17444EEA8E0E56
:1019F00027EA04454FEA1C4704FB07622CEA074C20
:101A000005FB07F70CFB05F604FB0CFC16EB074681
:101A100042EB174216EB0C4642EB1C421BEB060650
:101A200058EB0202414146EA9E0601D5BDE8018914
:101A3000B619524141EB0101A3F10103BDE801894F
:101A40004FEA14454FEA114724EA054621EA074CBC
:101A500005FB07F406FB07F70CFB06F105FB0CFC86
:101A600011EB074144EB17444FEA124711EB0C41CD
:101A700044EB1C4422EA074C05FB07F206FB07F780
:101A80000CFB06F605FB0CFC16EB074642EB174277
:101A900016EB0C4642EB1C456A1854F1000148BF96
:101AA0007047B619524141EB0101A3F101037047A0
:101AB00095F0000F37D04FEA11424FEA144721EA60
:101AC000024624EA074C02FB07F106FB07F70CFB72
:101AD00006F402FB0CFC14EB074441EB17414FEA00
:101AE000154714EB0C4441EB1C4125EA074C02FB63
:101AF00007F506FB07F70CFB06F602FB0CFC16EBE2
:101B0000074645EB174516EB0C4645EB1C421219F0
:101B100051F1000148BF7047B619524141EB010134
:101B2000A3F1010370474FEA14454FEA114724EA35
:101B3000054621EA074C05FB07F106FB07F70CFBFE
:101B400006F24FF0000605FB0CFC12EB074241EBDE
:101B5000174112EB0C4251EB1C4148BF70479218E1
:101B600041EB0101A3F101037047FEE7704700F06C
:101B700061B9000006490020C8610648016941F0CA
:101B800004010161016941F04001016170470000F9
:101B90003001002000200240064A0021D1610649A0
:101BA0000A6942F002020A614861086940F0400097
:101BB000086170473001002000200240044B0022E1
:101BC000DA61044A136943F001031361018070472D
:101BD000300100200020024014480022C168CB06DA
:101BE000134904D5CA6942F00202CA611022C368CF
:101BF0005B0705D5CB6943F00103CB6142F00402DA
:101C0000C369DB0707D0CB6943F00403CB61C1692B
:101C100021F00101C161A2F58071013901D0C260DA
:101C20007047C16921F00101C16170470020024085
:101C30003001002070B5054600F0D0FA0646114C80
:101C400009E0681C07D025B100F0C8FA801BA84243
:101C500001D9032070BDE068C007F2D1E0688006BA
:101C600001D52020E060E068C00605D4E069C00727
:101C700002D1E068400703D5FFF7AEFF012070BD39
:101C8000002070BD0020024010B590F82110002205
:101C9000022905D00421816380F82020012010BD95
:101CA00001680B6823F00E030B6001680B6823F0DA
:101CB00001030B6090F84030C46B012101FA03F37B
:101CC000636080F8211080F82020104610BD0000CD
:101CD00010B590F821100024022903D0042181635B
:101CE00001243DE001680A6822F00E020A600168E2
:101CF0000A6822F001020A601A4A0168914201D181
:101D0000012121E0174A1432914201D110211BE038
:101D1000144A2832914201D1891515E0114A3C320A
:101D2000914201D189140FE00E4A5032914202D102
:101D30004FF4803108E00B4A6432914202D14FF4F3
:101D4000801101E04FF08071064A083A516001218C
:101D500080F82110002180F82010416B01B18847E4
:101D6000204610BD08000240064810B54FF0FF3174
:101D7000016100220261C160C26000F06FFA0020C0
:101D800010BD0000001002402DE9F047054626482E
:101D90000F460126017E01290FD0012181460176DF
:101DA0002868DFF888804CF25034022808D0A24618
:101DB0002046FFF73FFFA8B131E00220BDE8F087E1
:101DC0002046FFF737FF08BB0120FFF7D3FE204670
:101DD000FFF730FFD8F81010064621F00401C8F8CC
:101DE00010101CE04FF0FF303860AC6811E0204666
:101DF000FFF7D2FE5046FFF71DFFD8F8101006007F
:101E000021F00201C8F8101001D03C6007E004F591
:101E10008064D5E9020100EB8120A042E7D80021CF
:101E200089F818103046C9E7300100200020024030
:101E3000704700002DE9F0413E4DE8683E4CC00679
:101E40004FF0FF374FF0000602D4E868400708D58E
:101E5000D4F80880A760FFF7BFFE404600F078F88E
:101E60002670E868800653D52020E8602078F8B115
:101E7000207801281DD02078022833D06068401EC9
:101E800060606068B0B3A068801CA060A068216931
:101E90006269090C41EA0241120C216162612969FF
:101EA00021F0010129612169626989B2FFF786FE8B
:101EB0002EE06068401E6060606868B1A068FFF74F
:101EC000B7FFA06800F58060A060296921F00201D9
:101ED0002961FFF761FE1BE03846A7602670FFF717
:101EE000A7FF15E0286920F0040028610020FFF713
:101EF0009FFF0CE0FFE72078032817D02078042804
:101F0000A06815D0B0F10600FFF792FFA760267019
:101F10002078002808D1286920F007002861286966
:101F200020F4A05028612676BDE8F081A068EBE798
:101F3000801EE9E7002002403001002003480169CB
:101F400041F0800101610020704700000020024044
:101F5000704700002DE9F05F07461C4888460024C2
:101F6000017E15461E46012909D0012181460176D0
:101F70004CF2503A5046FFF75DFE18B122E00220C5
:101F8000BDE8F09F012F02D0022F00D00427D346D6
:101F9000DFF83CA0220128463146FEF76BF981B2FA
:101FA00008EB4400FFF70AFE5846FFF743FEDAF855
:101FB000102022F00102CAF8102018B9641CE4B203
:101FC000BC42E7D3002289F81820D9E7300100206D
:101FD00000200240064900200A69120607D5054A7A
:101FE0004A60054A4A600969090600D50120704720
:101FF0000020024023016745AB89EFCD2DE9F84F62
:10200000DFF8B8910024A9F1040B23460F2709F14A
:10201000040AABF1040EC9E00125A5402A40AA42FA
:102020007DD1674ED1F804C0ACEB0608B44532D080
:1020300014DCBCF1030F3AD009DCBCF1000F2AD04C
:10204000BCF1010F1CD0BCF1020F31D11DE0BCF17D
:10205000110F17D0BCF1120F2AD119E0B8F5881F63
:1020600019D006DCB8F5803F15D0B8F5801F1FD118
:1020700011E0B8F5001F0ED0B8F5041F18D10AE022
:10208000CB6815E0CB681B1D12E0CB6808330FE06E
:10209000CB680C330CE08B682BB1012B4FF008039D
:1020A00003D0456104E0042302E0056100E0002361
:1020B000FF2A01D8064601E000F104064FEA840534
:1020C00001D9A5F12005D6F8008007FA05FC28EA19
:1020D0000C0803FA05F548EA0508C6F800804D68C3
:1020E000ED0062D5374DAE6946F00106AE61AD69CF
:1020F00024F0030605F001050095334D06EB050CB1
:10210000DCF80850A607360F07FA06F825EA080596
:10211000DFF8B880404503D14FF0000817E044E0F5
:10212000DFF8AC80404502D14FF001080FE0DFF846
:10213000A480404502D14FF0020808E0DFF8988003
:10214000404502D14FF0030801E04FF0040808FABF
:1021500006F848EA0508CCF808804D68D9F8006010
:10216000ED024D4601D5164300E096432E604D68C2
:10217000DAF80060AD02554601D5164300E09643FB
:102180002E604D68DBF80060AD035D4601D5164357
:1021900000E096432E604D68DEF80060ED03754662
:1021A00001D5164300E096432E60641C0D682A4654
:1021B000E5407FF431AFBDE8F88F0000080401402E
:1021C0000000111000100240000001400008014012
:1021D000000C0140001001400014014001488068DB
:1021E0007047000010000020024881680278114406
:1021F0008160704710000020074810B5016841F069
:1022000010010160032000F07FF80F2000F006F8B5
:1022100000F026F8002010BD0020024070B50D4DE2
:1022200004464FF47A712878B1FBF0F00A49096846
:10223000B1FBF0F000F054FB48B9102C07D200229B
:102240002146501E00F040F800206C6070BD012057
:1022500070BD0000100000201C000020704700002E
:10226000104808B5816941F001018161816901F07F
:1022700001010091C16941F08051C161C069002232
:1022800000F0805000900221042000F01DF804208E
:1022900000F00CF80448416821F0E06141F0007161
:1022A000416008BD0010024000000140002809DB29
:1022B00000F01F02012191404009800000F1E02060
:1022C000C0F8001170470000F0B40E4B1B680C46BC
:1022D000C3F30223C3F10705042D00D90425191DFA
:1022E000072901D2002300E0DB1E012606FA05F1D2
:1022F000491E214099409E40761E16403143F0BC55
:1023000000F0EDBE0CED00E0064900F007020868A1
:102310004FF6FF03184040EA0220034A10430860CA
:10232000704700000CED00E00000FA052DE9F047D1
:102330000F46050061D0434E306800F00700B842F8
:1023400009D2306820F0070038433060306800F070
:102350000700B84251D128683B4C810712D540078D
:1023600003D5606840F4E06060602878000703D51A
:10237000606840F4605060606068A96820F0F00018
:10238000084360602878C00728D06868012810D00A
:102390002168022810D0890700292EDA616821F00F
:1023A000030101436160FFF719FF804641F288395C
:1023B0000DE021688903EFE78901EDE7FFF70EFFE4
:1023C000A0EB0801494502D90320BDE8F087606809
:1023D000696800F00C00B0EB810FEFD1306800F0BD
:1023E0000700B8420BD9306820F00700384330604E
:1023F000306800F00700B84201D00120E5E72878F6
:10240000400705D56068E96820F4E0600843606033
:102410002878000706D56068296920F4605040EAF2
:10242000C100606000F0A6F86168084AC1F30311BA
:10243000515CC8400649086006480068FFF7EEFE98
:102440000020C2E700200240001002406E36000863
:102450001C000020140000202DE9F041FFF7BEFE13
:10246000304C0546206840F00100206005E000BFC8
:10247000FFF7B4FE401B022843D820688007F7D539
:10248000206820F0F80040F080002060FFF7A6FEF2
:1024900000250646656041F2883704E0FFF79EFE9E
:1024A000801BB8422DD8606810F00C0FF6D11F4980
:1024B0001D4808601E480068FFF7B0FE10B10120FB
:1024C000BDE8F081FFF78AFE0646206820F08070A4
:1024D000206004E0FFF782FE801B022811D82068EC
:1024E0008001F7D46560FFF779FE0646206820F486
:1024F0001020206007E000BFFFF770FE801B6428FB
:1025000001D90320DCE720688003F5D4206820F49B
:1025100080202060606A40F080706062A5600020CA
:10252000CEE700000010024000127A001C000020DC
:10253000140000200448054900684968044AC1F3B2
:102540000221515CC84070471C000020001002406E
:102550007E3600080448054900684968044AC1F30A
:10256000C221515CC84070471C000020001002408E
:102570007E3600080E4A51680E4801F00C03042B09
:1025800011D0082B0FD10C48C1F38343C903C05CA1
:102590000AD55168084AC1F34041921E515C054A70
:1025A0005043B0FBF1F070470449484370470000C6
:1025B0000010024000127A005E36000800093D005B
:1025C0002DE9F84F040070D02078C04DC00749D0E5
:1025D0006868C0F38100012807D06868C0F38100F3
:1025E000022809D16868C00306D52868800339D558
:1025F00060680028E7D035E06068B0F5803F0BD018
:1026000010B1B0F5A02F11D0286820F480302860D8
:10261000286820F4802002E0286840F48030286098
:10262000606890B1FFF7DAFD06460AE0286840F4DA
:1026300080202860F0E700BFFFF7D0FD801B6428F2
:1026400073D828688003F7D50CE0FFF7C7FD06466E
:1026500005E000BFFFF7C2FD801B6428F0D82868A2
:102660008003F7D420789A4E80074FF001094FF08D
:10267000000839D5686810F00C0F07D06868C0F3FF
:102680008100022809D16868C00306D42868800741
:1026900014D52069012808D110E02069B0B1C6F82E
:1026A0000090FFF79BFD074605E00AE1FFF796FD66
:1026B000C01B0228C4D828688007F7D5286861693C
:1026C00020F0F80040EAC10028600DE0C6F8008064
:1026D000FFF784FD074604E0FFF780FDC01B0228DA
:1026E00023D828688007F7D4207800072CD57948AC
:1026F000A169D9B1C0F80090FFF770FD074604E06A
:10270000FFF76CFDC01B02280FD8686A8007F7D559
:1027100071484FF4FA510068B0FBF1F0009000BF2F
:102720000098411E0091FAD20EE080E0C0F80080CF
:10273000FFF754FD074604E0FFF750FDC01B0228D9
:1027400075D8686A8007F7D42078400760D5E869B3
:102750000027C00008D4E86940F08050E861E869CB
:10276000012700F0805000905C480168C90513D42F
:102770000168834641F480710160FFF72FFD8246B6
:1027800006E000BFFFF72AFDA0EB0A0064284ED840
:10279000DBF80000C005F5D5E06801280AD008B1D3
:1027A000052813D0286A20F001002862286A20F04A
:1027B000040002E0286A40F001002862E06841F26B
:1027C000883B98B1FFF70AFD82460BE0286A40F08B
:1027D00004002862EEE700BFFFF700FDA0EB0A014E
:1027E00059455AD8286A8007F6D50CE0FFF7F6FC61
:1027F000824605E0FFF7F2FCA0EB0A0159454CD8F0
:10280000286A8007F6D41FB1E86920F08050E8619B
:10281000E06988B36968C1F38101022944D00228C4
:10282000C6F8608004D0FFF7D9FC044638E034E0F5
:10283000FFF7D4FC074604E0FFF7D0FCC01B0228DA
:102840002BD828688001F7D4206AB0F5803F05D1E5
:102850006868A16820F4003008436860D4E9080182
:102860000843696821F4741108436860C6F86090F1
:10287000FFF7B4FC044606E025E000BFFFF7AEFC1E
:10288000001B022809D828688001F7D51BE000BF8B
:10289000FFF7A4FC001B022802D90320BDE8F88F33
:1028A00028688001F4D40EE00128F7D06868226A15
:1028B00000F48031914204D1616A00F470108842C2
:1028C00001D00120EAE70020E8E700000010024004
:1028D00000004242800442421C0000200070004080
:1028E00010B5401EB0F1807F01D3012010BD4FF024
:1028F000E02460610F21601700F0F1FB0020A0616F
:1029000007202061002010BD18B5034690F8420052
:10291000202801D0022018BD61B15AB101201863EE
:1029200000205863184600F067FB0028F3D1196BAC
:10293000012901D0012018BD19680A684968009171
:1029400019680C3151E8002F42F0100241E80024D0
:10295000002CF5D118BD000004480122027041800E
:1029600003498022A1F14800FFF7CEBF00000020FC
:10297000B000002070470000F8B501680446086800
:10298000CA684B6910F00F0F4FF0000559D003F0E3
:10299000010602F49077374365D0C10705D0D10511
:1029A00003D5616C41F001016164410705D5D90788
:1029B00003D0616C41F002016164810705D5D9073C
:1029C00003D0616C41F004016164010707D502F096
:1029D0002001314303D0616C41F008016164616CF6
:1029E00000293AD0800604D5900602D5204600F092
:1029F00046FA20684069616CC0F38010090700D472
:102A000060B3204600F014FA20684069400621D5E2
:102A10002068143050E8001F21F0400140E8001207
:102A2000002AF5D1E06BA8B16D494163E06BFFF777
:102A30004FF9002811D0E06B416B01B0BDE8F040C8
:102A4000084783060FD593060DD52046BDE8F8400C
:102A500000F015BA2046FFF78DFFF8BD2046FFF7BE
:102A600089FF6564F8BD266B2023012E7CD1C60644
:102A70007AD5D60678D508684868009048694FF03E
:102A80000206400640D5E16B086840680004000C6F
:102A9000E8D0A28D8242E5D9E085886920282DD032
:102AA00020680C3050E8001F21F4807140E80012CB
:102AB000002AF5D12068143050E8001F21F00101F0
:102AC00040E80012002AF5D12068143050E8001FB9
:102AD00021F0400140E80012002AF5D184F842308C
:102AE000256320680C3050E8001F21F0100140E8F9
:102AF0000012002AF5D1E06BFFF7C6F86663A08DDF
:102B0000E18D401A81B22AE0A08DE18D401A81B298
:102B1000E08D0028A6D00029A4D022680C3252E80B
:102B2000000F20F4907042E80007002FF5D12068D4
:102B3000143050E8002F22F0010240E80027002F57
:102B4000F5D184F84230256320680C3050E8002F1E
:102B500022F0100240E80023002BF5D166632046E6
:102B6000FFF7FAFEF8BDFFE705062BD5150629D5B8
:102B700094F841002128F5D1A068B0F5805F01D11B
:102B80002069B0B1206A411C216221680078486048
:102B9000E08C401E0004000CE084E3D12068C16892
:102BA00021F08001C1602068C16841F04001C1602E
:102BB000D8E7206A0088C0F308004860206A801CBB
:102BC0002062E5E74006CDD55006CBD5CA68204641
:102BD00022F04002CA6084F8413000F0E9F8C1E711
:102BE000212E000870B5040004D094F8410000259F
:102BF00010B106E0012070BD84F84050204600F07E
:102C000023F8242084F841002068C16821F4005191
:102C1000C160204600F094F92068016921F49041D8
:102C200001612068416921F02A0141612068C16881
:102C300041F40051C1606564202084F8410084F8AB
:102C400042006563002070BD70B586B0002400941A
:102C50000194029403942B4E03682B490220032213
:102C60002A4DB34221D18B6943F480438B618B6938
:102C700003F4804304938B6943F004038B618969F7
:102C8000039201F0040104910102CDE900106946AC
:102C90002846FFF7B3F92815CDE900046946284610
:102CA0000294FFF7ABF906B070BD194EB342FAD1EA
:102CB000CB6943F40033CB61CB6903F40033049355
:102CC0008B6943F004038B618969039201F004016D
:102CD00004910421CDE9001069462846FFF78EF9DA
:102CE0000820CDE90004694628460294FFF786F9DA
:102CF000002201212620FFF7E7FA2620FFF7D6FA67
:102D0000D1E70000003801400010024000080140F7
:102D10000044004070472DE9F843044690F8410014
:102D20001F4616460D46202802D00220BDE8F88333
:102D30007DB176B100206064212084F84100FFF766
:102D40004DFAA6848046E684A068B0F5805F02D084
:102D500003E00120EAE7206910B12E4600250EE0CD
:102D600000260CE08021204600F061F9A0B9AEB148
:102D700016F8010B21684860E08C401EE084E08C6E
:102D800043464FF0000200970028EBD14FF040017E
:102D9000204600F04CF930B10320C7E735F8020BAC
:102DA000C0F30800E6E7202084F841000020BDE7DA
:102DB0007047FEE7FEE7FEE770477047FFF714BA7B
:102DC00030B58FB028216846FDF77AFA14210AA899
:102DD000FDF776FA01210804CDE9001000240294E1
:102DE00002250491CDE907504FF4E01009906846A0
:102DF000FFF7E6FB08B172B6FEE70F20CDE90A0542
:102E00004FF48060CDE90C4002210AA80E94FFF730
:102E10008DFA002801D072B6FEE70FB030BD7047C2
:102E200010B5406A0021C185C184FFF7A3FD10BD24
:102E300001680C3151E8002F22F4907241E8002320
:102E4000002BF5D10168143151E8002F22F0010266
:102E500041E80023002BF5D1016B012909D101685C
:102E60000C3151E8002F22F0100241E80023002B22
:102E7000F5D1202180F8421000210163704708B588
:102E800090F84210222901D0022008BD82684FF438
:102E900080539A4201D1016921B1816A9A421BD0C3
:102EA0004AB10AE00268816A5268C2F308020A80E5
:102EB000816A891C08E0026972B10268526802F0F6
:102EC0007F020A70816A491C8162C18D491E090412
:102ED000090CC18503D01BE002685268F1E7016864
:102EE000CA6822F02002CA600168CA6822F48072AF
:102EF000CA6001684A6922F001024A61202180F813
:102F0000421000214163026B012A03D0FFF702FF48
:102F1000002008BD016301680C3151E8002F22F048
:102F2000100241E80023002BF5D101680A68D2069F
:102F300002D50A6849680091818DFFF70DFDE7E72A
:102F400070B5044600680169E26821F440511143FC
:102F500001612169A0680843616908432168CA6862
:102F600041F20C639A430243CA6020684169A26936
:102F700021F44071114341611E492068884202D109
:102F8000FFF7E8FA01E0FFF7D5FA00EBC00101EB2B
:102F90000012606864218000B2FBF0F3B3FBF1F330
:102FA0006FF018067343B2FBF0F5B2FBF0F605EBD9
:102FB0008305322303EB0515B5FBF1F5B6FBF1F6FE
:102FC00005F0F00505EB0615B2FBF0F6B2FBF0F0EC
:102FD000B0FBF1F06FF01802504306EB800003EBFA
:102FE0000010B0FBF1F0216800F00F002844886069
:102FF00070BD00000038014081628285C2850021D9
:103000004164222180F84210016921B10168CA6837
:1030100042F48072CA6001684A6942F001024A6162
:103020000068C16841F02001C160002070472DE9AF
:10303000F041984617460E460446069D27E0681C58
:1030400025D02DB1FFF7CAF8A0EB0800A8421ED981
:1030500020680C3050E8001F21F4D07140E80012C5
:10306000002AF5D12068143050E8001F21F001013A
:1030700040E80012002AF5D1202084F8410084F8AD
:103080004200002084F840000320BDE8F081206861
:10309000006836EA000004D00020B842CFD00020FB
:1030A000F3E70120F9E700000148FFF765BC0000E5
:1030B00068000020FEE7490050EAC12018BF042044
:1030C0004A0D18BF40F0010040F2FF72B2EB515FB1
:1030D00008BF40F00200012808BF0520704709071B
:1030E000090E002804DB00F1E02080F8001470478E
:1030F00000F00F0000F1E02080F8141D7047303818
:103100000A2801D20120704700207047034610B5FD
:103110000020024604E09C5C521C2044C0B2D2B2A3
:103120008A42F8D310BD000070B50D460646002453
:1031300005E0315D03A000F06FF9641CE4B2AC421D
:10314000F7D370BD253032782000000000B585B07F
:10315000CDE902100020009004A96846FEF714FE95
:1031600005B000BDFEF7EABE70B5531C4FF0FF344A
:1031700004EB53039CB200230AE0057801F81350D6
:1031800030F8025B01EB43062D0A5B1C75709BB2A5
:10319000A342F2D3D20703D0007801F8130070BD28
:1031A000027801F81320008801EB4301000A4870FF
:1031B00070BDFEF70FBF00002DE9F0410646501C20
:1031C00090464FF0FF3202EB500087B200240D46CC
:1031D0000BE000BF05EB4400314602880120D30F0D
:1031E000FEF7B8FE641CA4B2B61CBC42F2D35FEA80
:1031F000C87008D015F8142000233146BDE8F0410E
:103200000120FEF7A7BE05EB44000288D30FF4E7C8
:1032100008B5FEF7F1FFFFF7D3FD4E48816941F095
:1032200020018161816901F020010091816941F0F3
:10323000040181618069484900F00400009047481A
:103240004FF4E13600240160C0E901640C25C4603C
:10325000C0E904458461C461FFF7C4FC08B172B6DB
:10326000FEE73E483E4948300160C0E90164C46061
:10327000C0E904458461C461FFF7B4FC08B172B6CB
:10328000FEE7394E042237493046FFF76DFF354DD2
:103290002878552802D16878AA2816D033A000F0E3
:1032A000BBF855202870AA206870EC70AC70FFF74E
:1032B00080FF31460120FFF749FF042229493046AB
:1032C000FFF77AFFFFF74EFF02E02CA000F0A4F812
:1032D000A87810B1012827D115E02DA000F09CF8A6
:1032E000E978304E304F51B13A4630A000F094F8B2
:1032F000E87830B14FEA070000F04CF914E03246AC
:10330000F3E73046F8E734A000F086F8AC70FFF73A
:1033100050FF31460120FFF719FF042211493046C2
:10332000FFF74AFFFFF71EFF32A000F075F80B49C8
:1033300080229031A1F14800FFF7E6FA094D083DDF
:1033400028780028FCD00548A978903000F078F85B
:103350002C70F5E7001002400038014020000020EA
:10336000004400400800002000F80108426F6F741C
:103370003A2046697273740A00000000426F6F744D
:103380003A204E6F742046697273740A0000000080
:10339000426F6F743A204E4F524D414C5F5245532D
:1033A00045540A000050000800240108426F6F7461
:1033B0003A2052756E5F6170705F70726F677261F4
:1033C0006D3A204170703A2025642C20416464726B
:1033D0003A2025780A000000426F6F743A204F545B
:1033E000415F524551554553545F52455345540A28
:1033F00000000000426F6F743A2050726F67726174
:103400006D20426F6F746C6F6164657220537461DC
:103410007274210A000000000FB400B599B01BAA15
:1034200068461A99FCF73AFFC2B26423694603481A
:10343000FFF771FC19B05DF814FB000020000020BC
:1034400070B504460D46032964D333A0FFF7E4FFAB
:1034500029462046FFF768FE36A0FFF7DDFF6178BA
:1034600035A0FFF7D9FF681EC1B22046FFF74EFE18
:10347000611911F8011C814247D132A0FFF7CCFF3E
:10348000217834A0FFF7C8FF2078012828D0344DD8
:1034900002282CD003283DD105F108010020C87076
:1034A0008870304C01202146FFF750FE042205F1C0
:1034B00008012046FFF780FEFFF754FE2AA0FFF721
:1034C000ABFF2D486860BFF34F8F2C4801682C4A32
:1034D00001F4E06111430160BFF34F8F00BFFDE7CE
:1034E000002000F06FF8BDE87040FFF762BE66781C
:1034F000A11C32466868FFF75FFE68683044686068
:103500000020BDE8704000F05DB81EA0FFF784FF0A
:103510000120F6E770BD0000726563656976655F3E
:10352000646174615F70726F636573733A6C656E2A
:103530003D2025640A0000006C656E3A2025640A6F
:1035400000000000636865636B73756D3A206F6BF4
:103550000A000000636D643A2025780A000000002C
:103560000000002000F8010853454E445F444F4ED0
:10357000455F434D440A0000002401080CED00E0C3
:103580000400FA05636865636B73756D3A206572B4
:10359000720A000010B50446FEF75EFFFEF7E4FB7A
:1035A0000648016821F4E0210160206880F3088862
:1035B00060680349C860BDE81040004724ED00E0A2
:1035C0000000002008B504218DF8001001218DF8BD
:1035D00001108DF8020003216846FFF797FD8DF872
:1035E00003000421684600F001F808BD0A460146C0
:1035F00064230148FFF78FBB6800002010B5002945
:103600000AD00878002807D005487844FDF79EFEC8
:10361000002801D0002010BD0248784410BD0000F1
:103620009A0100009201000010B500290AD0087824
:10363000002807D005487844FDF788FE002801D00F
:10364000002010BD0248784410BD00008A0100002F
:1036500082010000FDF787BAFDF7BCBB010202033F
:103660000405060708090A0B0C0D0E0F10100000C8
:103670000000000000000102030406070809000022
:103680000000010203040000000000000000000030
:103690003031323334353637383941424344454688
:1036A0004030580030313233343536373839616282
:1036B0006364656640307800040000080000000084
:1036C0000000000200010000103031323334353682
:1036D000373839616263646566787000303132333F
:1036E0003435363738394142434445465850000056
:1036F00002400000000000A00000000005400000A3
:10370000000000C8000000000C4000000000409CC9
:1037100000000000194000000020BCBE00000000B6
:1037200034400000BFC91B8E00000004B5400000FB
:10373000504BCFD06607E2CF010000006C41000083
:103740003E8251AADFEEA73401000000D9420000FA
:10375000DCB5A0E23A301F97FFFFFFFFB445000041
:10376000FD25A0C8E9A3C14FFFFFFFFFFF3F0000F9
:103770000000008000000000FF3F0000000000800B
:1037800000000000D03800080000002020000000E9
:1037900028010008F03800082000002090070000F1
:1037A000440100081C00000043000000F8FFFFFF78
:1037B0000C0000000E0000000F0000002E000000B2
:1037C0001001000043000000F8FFFFFF00404040F0
:1037D00040404040404041414141414040404040E4
:1037E0004040404040404040404040404005020290
:1037F000020202020202020202020202022020204F
:1038000020202020202020020202020202029090AA
:1038100090909090101010101010101010101010A8
:1038200010101010101010100202020202028888FC
:103830008888888808080808080808080808080808
:1038400008080808080808080202020240000000F0
:103850000000000000000000000000000000000068
:103860000000000000000000000000000000000058
:103870000000000000000000000000000000000048
:103880000000000000000000000000000000000038
:103890000000000000000000000000000000000028
:1038A0000000000000000000000000000000000018
:1038B0000000000000000000000000000000000008
:1038C00000000000000000000000000000000000F8
:1038D00001000000002401080000000000000000BA
:1038E0000100000010000000000000000024F400AF
:04000005080000ED02
:00000001FF
